{
  "contractName": "Market",
  "abi": [
    {
      "inputs": [
        {
          "internalType": "address",
          "name": "token",
          "type": "address"
        },
        {
          "internalType": "uint256",
          "name": "tokenId",
          "type": "uint256"
        },
        {
          "internalType": "uint256",
          "name": "price",
          "type": "uint256"
        },
        {
          "internalType": "uint256",
          "name": "tokenCount",
          "type": "uint256"
        }
      ],
      "name": "listFields",
      "outputs": [],
      "stateMutability": "nonpayable",
      "type": "function"
    },
    {
      "inputs": [
        {
          "internalType": "uint256",
          "name": "fieldsId",
          "type": "uint256"
        }
      ],
      "name": "buyToken",
      "outputs": [],
      "stateMutability": "payable",
      "type": "function"
    },
    {
      "inputs": [
        {
          "internalType": "uint256",
          "name": "fieldsId",
          "type": "uint256"
        }
      ],
      "name": "cancel",
      "outputs": [],
      "stateMutability": "nonpayable",
      "type": "function"
    }
  ],
  "bytecode": "0x60806040526000805534801561001457600080fd5b5061097f806100246000396000f3fe608060405260043610610051576000357c0100000000000000000000000000000000000000000000000000000000900480632d296bf11461005657806340e58ee514610072578063590d53f31461009b575b600080fd5b610070600480360381019061006b9190610583565b6100c4565b005b34801561007e57600080fd5b5061009960048036038101906100949190610583565b610231565b005b3480156100a757600080fd5b506100c260048036038101906100bd919061060e565b610383565b005b60006001600083815260200190815260200160002090508060000160019054906101000a900473ffffffffffffffffffffffffffffffffffffffff1673ffffffffffffffffffffffffffffffffffffffff163373ffffffffffffffffffffffffffffffffffffffff16141561016e576040517f08c379a0000000000000000000000000000000000000000000000000000000008152600401610165906106d2565b60405180910390fd5b60006002811115610182576101816106f2565b5b8160000160009054906101000a900460ff1660028111156101a6576101a56106f2565b5b146101e6576040517f08c379a00000000000000000000000000000000000000000000000000000000081526004016101dd9061076d565b60405180910390fd5b806003015434101561022d576040517f08c379a0000000000000000000000000000000000000000000000000000000008152600401610224906107d9565b60405180910390fd5b5050565b60006001600083815260200190815260200160002090508060000160019054906101000a900473ffffffffffffffffffffffffffffffffffffffff1673ffffffffffffffffffffffffffffffffffffffff163373ffffffffffffffffffffffffffffffffffffffff16146102da576040517f08c379a00000000000000000000000000000000000000000000000000000000081526004016102d19061086b565b60405180910390fd5b600060028111156102ee576102ed6106f2565b5b8160000160009054906101000a900460ff166002811115610312576103116106f2565b5b14610352576040517f08c379a00000000000000000000000000000000000000000000000000000000081526004016103499061076d565b60405180910390fd5b60028160000160006101000a81548160ff0219169083600281111561037a576103796106f2565b5b02179055505050565b600081116103c6576040517f08c379a00000000000000000000000000000000000000000000000000000000081526004016103bd906108b1565b60405180910390fd5b60006040518060c00160405280600060028111156103e7576103e66106f2565b5b81526020013373ffffffffffffffffffffffffffffffffffffffff1681526020018673ffffffffffffffffffffffffffffffffffffffff16815260200185815260200184815260200183815250905060008081548092919061044890610900565b919050555080600160008054815260200190815260200160002060008201518160000160006101000a81548160ff0219169083600281111561048d5761048c6106f2565b5b021790555060208201518160000160016101000a81548173ffffffffffffffffffffffffffffffffffffffff021916908373ffffffffffffffffffffffffffffffffffffffff16021790555060408201518160010160006101000a81548173ffffffffffffffffffffffffffffffffffffffff021916908373ffffffffffffffffffffffffffffffffffffffff160217905550606082015181600201556080820151816003015560a082015181600401559050505050505050565b600080fd5b6000819050919050565b6105608161054d565b811461056b57600080fd5b50565b60008135905061057d81610557565b92915050565b60006020828403121561059957610598610548565b5b60006105a78482850161056e565b91505092915050565b600073ffffffffffffffffffffffffffffffffffffffff82169050919050565b60006105db826105b0565b9050919050565b6105eb816105d0565b81146105f657600080fd5b50565b600081359050610608816105e2565b92915050565b6000806000806080858703121561062857610627610548565b5b6000610636878288016105f9565b94505060206106478782880161056e565b93505060406106588782880161056e565b92505060606106698782880161056e565b91505092959194509250565b600082825260208201905092915050565b7f42757965722063616e206e6f7420626520612073656c6c657221212100000000600082015250565b60006106bc601c83610675565b91506106c782610686565b602082019050919050565b600060208201905081810360008301526106eb816106af565b9050919050565b7f4e487b7100000000000000000000000000000000000000000000000000000000600052602160045260246000fd5b7f4669656c6473206973206e6f7420616374697665000000000000000000000000600082015250565b6000610757601483610675565b915061076282610721565b602082019050919050565b600060208201905081810360008301526107868161074a565b9050919050565b7f496e737566666963656e74207061796d656e7400000000000000000000000000600082015250565b60006107c3601383610675565b91506107ce8261078d565b602082019050919050565b600060208201905081810360008301526107f2816107b6565b9050919050565b7f6f6e6c792073656c6c65722063616e2063616e63656c6c6564206c697374696e60008201527f6700000000000000000000000000000000000000000000000000000000000000602082015250565b6000610855602183610675565b9150610860826107f9565b604082019050919050565b6000602082019050818103600083015261088481610848565b9050919050565b50565b600061089b600083610675565b91506108a68261088b565b600082019050919050565b600060208201905081810360008301526108ca8161088e565b9050919050565b7f4e487b7100000000000000000000000000000000000000000000000000000000600052601160045260246000fd5b600061090b8261054d565b91507fffffffffffffffffffffffffffffffffffffffffffffffffffffffffffffffff82141561093e5761093d6108d1565b5b60018201905091905056fea26469706673582212203e0225582f0ea27eb3092ccb1bff8102e7d248043d5b13f33a7d43303be5a32364736f6c63430008090033",
  "immutableReferences": {},
  "source": "// SPDX-License-Identifier: MIT\npragma solidity ^0.8.9;\n\nimport \"./IERC20.sol\";\n\ncontract Market {\n\n    enum FieldsStatus {\n        Active,\n        Sold,\n        Cancelled\n    }\n    \n    struct Fields {\n        FieldsStatus status;\n        address seller;\n        address token;\n        uint tokenId;\n        uint price;\n        uint tokneCount;\n    }\n\n    uint private _fieldsId = 0;\n    mapping(uint => Fields) private _fields;\n\n    // function to create the Fields by seller\n    function listFields(address token, uint tokenId,uint price, uint tokenCount) external {\n\n        require(tokenCount > 0,\"\");\n        Fields memory fields = Fields(\n            FieldsStatus.Active,\n            msg.sender,\n            token,\n            tokenId,\n            price,\n            tokenCount\n        );\n\n        _fieldsId++;\n        _fields[_fieldsId] = fields;\n    }\n\n    // function to buy token must be payable\n    // to pass FieldsId the user tell us what he wont to buy\n    function buyToken(uint fieldsId) external payable {\n\n        Fields storage fields = _fields[fieldsId];\n\n        require(msg.sender != fields.seller, \"Buyer can not be a seller!!!\");\n        require(fields.status == FieldsStatus.Active,\"Fields is not active\");\n\n        require(msg.value >= fields.price, \"Insufficent payment\");\n    }\n\n    function cancel(uint fieldsId) public {\n\n        Fields storage fields = _fields[fieldsId];\n\n        require(msg.sender == fields.seller, \"only seller can cancelled listing\");\n        require(fields.status == FieldsStatus.Active,\"Fields is not active\");\n\n        fields.status = FieldsStatus.Cancelled;\n\n    }\n}\n",
  "sourcePath": "/home/karen/erc20-market/contracts/Market.sol",
  "compiler": {
    "name": "solc",
    "version": "0.8.9+commit.e5eed63a.Emscripten.clang"
  },
  "schemaVersion": "3.4.7",
  "updatedAt": "2022-05-20T12:00:21.317Z",
  "devdoc": {
    "kind": "dev",
    "methods": {},
    "version": 1
  },
  "userdoc": {
    "kind": "user",
    "methods": {},
    "version": 1
  }
}